{
    "contractName": "Wheel",
    "abi": [
        {
            "inputs": [
                {
                    "internalType": "uint256",
                    "name": "minMultiplier_",
                    "type": "uint256"
                },
                {
                    "internalType": "uint256",
                    "name": "maxMultiplier_",
                    "type": "uint256"
                },
                {
                    "internalType": "uint256",
                    "name": "bettingTime_",
                    "type": "uint256"
                },
                {
                    "internalType": "uint256",
                    "name": "idleTime_",
                    "type": "uint256"
                }
            ],
            "stateMutability": "nonpayable",
            "type": "constructor"
        },
        {
            "anonymous": false,
            "inputs": [
                {
                    "indexed": true,
                    "internalType": "address",
                    "name": "previousOwner",
                    "type": "address"
                },
                {
                    "indexed": true,
                    "internalType": "address",
                    "name": "newOwner",
                    "type": "address"
                }
            ],
            "name": "OwnershipTransferred",
            "type": "event"
        },
        {
            "inputs": [],
            "name": "getState",
            "outputs": [
                {
                    "internalType": "enum Wheel.States",
                    "name": "",
                    "type": "uint8"
                }
            ],
            "stateMutability": "view",
            "type": "function"
        },
        {
            "inputs": [],
            "name": "maxMultiplier",
            "outputs": [
                {
                    "internalType": "uint256",
                    "name": "",
                    "type": "uint256"
                }
            ],
            "stateMutability": "view",
            "type": "function"
        },
        {
            "inputs": [],
            "name": "minMultiplier",
            "outputs": [
                {
                    "internalType": "uint256",
                    "name": "",
                    "type": "uint256"
                }
            ],
            "stateMutability": "view",
            "type": "function"
        },
        {
            "inputs": [],
            "name": "owner",
            "outputs": [
                {
                    "internalType": "address",
                    "name": "",
                    "type": "address"
                }
            ],
            "stateMutability": "view",
            "type": "function"
        },
        {
            "inputs": [
                {
                    "internalType": "uint256",
                    "name": "bet",
                    "type": "uint256"
                },
                {
                    "internalType": "uint256",
                    "name": "multiplier",
                    "type": "uint256"
                }
            ],
            "name": "placeBet",
            "outputs": [],
            "stateMutability": "nonpayable",
            "type": "function"
        },
        {
            "inputs": [
                {
                    "internalType": "uint256",
                    "name": "",
                    "type": "uint256"
                }
            ],
            "name": "players",
            "outputs": [
                {
                    "internalType": "address",
                    "name": "",
                    "type": "address"
                }
            ],
            "stateMutability": "view",
            "type": "function"
        },
        {
            "inputs": [],
            "name": "renounceOwnership",
            "outputs": [],
            "stateMutability": "nonpayable",
            "type": "function"
        },
        {
            "inputs": [
                {
                    "internalType": "uint256",
                    "name": "startTime",
                    "type": "uint256"
                }
            ],
            "name": "startNewRound",
            "outputs": [],
            "stateMutability": "nonpayable",
            "type": "function"
        },
        {
            "inputs": [],
            "name": "state",
            "outputs": [
                {
                    "internalType": "enum Wheel.States",
                    "name": "",
                    "type": "uint8"
                }
            ],
            "stateMutability": "view",
            "type": "function"
        },
        {
            "inputs": [
                {
                    "internalType": "address",
                    "name": "newOwner",
                    "type": "address"
                }
            ],
            "name": "transferOwnership",
            "outputs": [],
            "stateMutability": "nonpayable",
            "type": "function"
        }
    ],
    "bytecode": "608060405234801561001057600080fd5b5060405161070d38038061070d83398101604081905261002f916100ac565b6100383361005c565b6002939093556003919091556006556007556000805460ff60a01b191690556100e2565b600080546001600160a01b038381166001600160a01b0319831681178455604051919092169283917f8be0079c531659141344cd1fd0a4f28419497f9722a3daafe3b4186f6b6457e09190a35050565b600080600080608085870312156100c257600080fd5b505082516020840151604085015160609095015191969095509092509050565b61061c806100f16000396000f3fe608060405234801561001057600080fd5b506004361061009e5760003560e01c80638da5cb5b116100665780638da5cb5b1461010a578063a24e0d871461012f578063c19d93fb14610138578063f2fde38b1461014c578063f71d96cb1461015f57600080fd5b80630187aea0146100a35780631865c57d146100bf5780634615102c146100da5780634afe62b5146100ef578063715018a614610102575b600080fd5b6100ac60035481565b6040519081526020015b60405180910390f35b600054600160a01b900460ff165b6040516100b69190610506565b6100ed6100e83660046104cb565b610172565b005b6100ed6100fd3660046104e4565b610207565b6100ed610350565b6000546001600160a01b03165b6040516001600160a01b0390911681526020016100b6565b6100ac60025481565b6000546100cd90600160a01b900460ff1681565b6100ed61015a36600461049b565b610386565b61011761016d3660046104cb565b610421565b600080600054600160a01b900460ff166003811115610193576101936105d0565b146101b95760405162461bcd60e51b81526004016101b09061052e565b60405180910390fd5b6000546001600160a01b031633146101e35760405162461bcd60e51b81526004016101b090610575565b814210156101f057600080fd5b50506000805460ff60a01b1916600160a01b179055565b6001600054600160a01b900460ff166003811115610227576102276105d0565b148015610243575060065460055461023f91906105aa565b4210155b1561025c576000805460ff60a01b1916600160a11b1790555b6002600054600160a01b900460ff16600381111561027c5761027c6105d0565b148015610298575060075460055461029491906105aa565b4210155b156102b1576000805460ff60a01b1916600360a01b1790555b600180600054600160a01b900460ff1660038111156102d2576102d26105d0565b146102ef5760405162461bcd60e51b81526004016101b09061052e565b5060088054600181019091557ff3f7a9fe364faab93b216da50a3214154f22a0a2b415b23a84c8169e8b636ee30180546001600160a01b03191633908117909155600090815260096020908152604080832094909455600a90529190912055565b6000546001600160a01b0316331461037a5760405162461bcd60e51b81526004016101b090610575565b610384600061044b565b565b6000546001600160a01b031633146103b05760405162461bcd60e51b81526004016101b090610575565b6001600160a01b0381166104155760405162461bcd60e51b815260206004820152602660248201527f4f776e61626c653a206e6577206f776e657220697320746865207a65726f206160448201526564647265737360d01b60648201526084016101b0565b61041e8161044b565b50565b6008818154811061043157600080fd5b6000918252602090912001546001600160a01b0316905081565b600080546001600160a01b038381166001600160a01b0319831681178455604051919092169283917f8be0079c531659141344cd1fd0a4f28419497f9722a3daafe3b4186f6b6457e09190a35050565b6000602082840312156104ad57600080fd5b81356001600160a01b03811681146104c457600080fd5b9392505050565b6000602082840312156104dd57600080fd5b5035919050565b600080604083850312156104f757600080fd5b50508035926020909101359150565b602081016004831061052857634e487b7160e01b600052602160045260246000fd5b91905290565b60208082526027908201527f46756e6374696f6e2063616e6e6f742062652063616c6c65642061742074686960408201526639903a34b6b29760c91b606082015260800190565b6020808252818101527f4f776e61626c653a2063616c6c6572206973206e6f7420746865206f776e6572604082015260600190565b600082198211156105cb57634e487b7160e01b600052601160045260246000fd5b500190565b634e487b7160e01b600052602160045260246000fdfea26469706673582212208ea49eadcb78369f14ece1db76ccb3ed5c9d91dc505419141d65ec7712778b2364736f6c63430008070033",
    "sourcePath": "/home/levi/wheel_latest/contracts/Wheel.sol",
    "compiler": {
        "name": "solc",
        "version": "0.8.7+commit.e28d00a7"
    },
    "functionHashes": {
        "getState()": "1865c57d",
        "maxMultiplier()": "0187aea0",
        "minMultiplier()": "a24e0d87",
        "owner()": "8da5cb5b",
        "placeBet(uint256,uint256)": "4afe62b5",
        "players(uint256)": "f71d96cb",
        "renounceOwnership()": "715018a6",
        "startNewRound(uint256)": "4615102c",
        "state()": "c19d93fb",
        "transferOwnership(address)": "f2fde38b"
    },
    "gasEstimates": {
        "creation": {
            "codeDepositCost": "312800",
            "executionCost": "infinite",
            "totalCost": "infinite"
        },
        "external": {
            "getState()": "2374",
            "maxMultiplier()": "2285",
            "minMultiplier()": "2306",
            "owner()": "2320",
            "placeBet(uint256,uint256)": "infinite",
            "players(uint256)": "4702",
            "renounceOwnership()": "28203",
            "startNewRound(uint256)": "28846",
            "state()": "2412",
            "transferOwnership(address)": "28340"
        },
        "internal": {
            "closeRound()": "infinite",
            "getWinningMultiplier()": "infinite",
            "random(uint256)": "infinite"
        }
    }
}