{
  "contractName": "WheelSolo",
  "abi": [
    {
      "inputs": [
        {
          "internalType": "uint256",
          "name": "minMultiplier_",
          "type": "uint256"
        },
        {
          "internalType": "uint256",
          "name": "maxMultiplier_",
          "type": "uint256"
        },
        {
          "internalType": "uint256",
          "name": "bettingTime_",
          "type": "uint256"
        },
        {
          "internalType": "uint256",
          "name": "idleTime_",
          "type": "uint256"
        }
      ],
      "stateMutability": "nonpayable",
      "type": "constructor"
    },
    {
      "anonymous": false,
      "inputs": [
        {
          "indexed": true,
          "internalType": "address",
          "name": "previousOwner",
          "type": "address"
        },
        {
          "indexed": true,
          "internalType": "address",
          "name": "newOwner",
          "type": "address"
        }
      ],
      "name": "OwnershipTransferred",
      "type": "event"
    },
    {
      "inputs": [],
      "name": "maxMultiplier",
      "outputs": [
        {
          "internalType": "uint256",
          "name": "",
          "type": "uint256"
        }
      ],
      "stateMutability": "view",
      "type": "function",
      "constant": true
    },
    {
      "inputs": [],
      "name": "minMultiplier",
      "outputs": [
        {
          "internalType": "uint256",
          "name": "",
          "type": "uint256"
        }
      ],
      "stateMutability": "view",
      "type": "function",
      "constant": true
    },
    {
      "inputs": [],
      "name": "owner",
      "outputs": [
        {
          "internalType": "address",
          "name": "",
          "type": "address"
        }
      ],
      "stateMutability": "view",
      "type": "function",
      "constant": true
    },
    {
      "inputs": [
        {
          "internalType": "uint256",
          "name": "",
          "type": "uint256"
        }
      ],
      "name": "players",
      "outputs": [
        {
          "internalType": "address",
          "name": "",
          "type": "address"
        }
      ],
      "stateMutability": "view",
      "type": "function",
      "constant": true
    },
    {
      "inputs": [],
      "name": "renounceOwnership",
      "outputs": [],
      "stateMutability": "nonpayable",
      "type": "function"
    },
    {
      "inputs": [],
      "name": "state",
      "outputs": [
        {
          "internalType": "enum WheelSolo.States",
          "name": "",
          "type": "uint8"
        }
      ],
      "stateMutability": "view",
      "type": "function",
      "constant": true
    },
    {
      "inputs": [
        {
          "internalType": "address",
          "name": "newOwner",
          "type": "address"
        }
      ],
      "name": "transferOwnership",
      "outputs": [],
      "stateMutability": "nonpayable",
      "type": "function"
    },
    {
      "inputs": [],
      "name": "getState",
      "outputs": [
        {
          "internalType": "enum WheelSolo.States",
          "name": "",
          "type": "uint8"
        }
      ],
      "stateMutability": "view",
      "type": "function",
      "constant": true
    },
    {
      "inputs": [
        {
          "internalType": "uint256",
          "name": "startTime",
          "type": "uint256"
        }
      ],
      "name": "startNewRound",
      "outputs": [],
      "stateMutability": "nonpayable",
      "type": "function"
    },
    {
      "inputs": [
        {
          "internalType": "uint256",
          "name": "bet",
          "type": "uint256"
        },
        {
          "internalType": "uint256",
          "name": "multiplier",
          "type": "uint256"
        }
      ],
      "name": "placeBet",
      "outputs": [],
      "stateMutability": "nonpayable",
      "type": "function"
    }
  ],
  "bytecode": "0x60806040523480156200001157600080fd5b5060405162000f2838038062000f2883398181016040528101906200003791906200018d565b620000576200004b620000aa60201b60201c565b620000b260201b60201c565b8360028190555082600381905550816006819055508060078190555060008060146101000a81548160ff021916908360038111156200009b576200009a62000209565b5b02179055505050505062000257565b600033905090565b60008060009054906101000a900473ffffffffffffffffffffffffffffffffffffffff169050816000806101000a81548173ffffffffffffffffffffffffffffffffffffffff021916908373ffffffffffffffffffffffffffffffffffffffff1602179055508173ffffffffffffffffffffffffffffffffffffffff168173ffffffffffffffffffffffffffffffffffffffff167f8be0079c531659141344cd1fd0a4f28419497f9722a3daafe3b4186f6b6457e060405160405180910390a35050565b60008151905062000187816200023d565b92915050565b60008060008060808587031215620001aa57620001a962000238565b5b6000620001ba8782880162000176565b9450506020620001cd8782880162000176565b9350506040620001e08782880162000176565b9250506060620001f38782880162000176565b91505092959194509250565b6000819050919050565b7f4e487b7100000000000000000000000000000000000000000000000000000000600052602160045260246000fd5b600080fd5b6200024881620001ff565b81146200025457600080fd5b50565b610cc180620002676000396000f3fe608060405234801561001057600080fd5b506004361061009e5760003560e01c80638da5cb5b116100665780638da5cb5b14610121578063a24e0d871461013f578063c19d93fb1461015d578063f2fde38b1461017b578063f71d96cb146101975761009e565b80630187aea0146100a35780631865c57d146100c15780634615102c146100df5780634afe62b5146100fb578063715018a614610117575b600080fd5b6100ab6101c7565b6040516100b89190610a3c565b60405180910390f35b6100c96101cd565b6040516100d691906109c1565b60405180910390f35b6100f960048036038101906100f491906108a3565b6101e3565b005b610115600480360381019061011091906108d0565b610312565b005b61011f61057f565b005b610129610607565b60405161013691906109a6565b60405180910390f35b610147610630565b6040516101549190610a3c565b60405180910390f35b610165610636565b60405161017291906109c1565b60405180910390f35b61019560048036038101906101909190610876565b610649565b005b6101b160048036038101906101ac91906108a3565b610741565b6040516101be91906109a6565b60405180910390f35b60035481565b60008060149054906101000a900460ff16905090565b60008060038111156101f8576101f7610b4e565b5b600060149054906101000a900460ff16600381111561021a57610219610b4e565b5b1461025a576040517f08c379a0000000000000000000000000000000000000000000000000000000008152600401610251906109fc565b60405180910390fd5b610262610780565b73ffffffffffffffffffffffffffffffffffffffff16610280610607565b73ffffffffffffffffffffffffffffffffffffffff16146102d6576040517f08c379a00000000000000000000000000000000000000000000000000000000081526004016102cd90610a1c565b60405180910390fd5b814210156102e357600080fd5b6001600060146101000a81548160ff0219169083600381111561030957610308610b4e565b5b02179055505050565b6001600381111561032657610325610b4e565b5b600060149054906101000a900460ff16600381111561034857610347610b4e565b5b14801561036457506006546005546103609190610a68565b4210155b15610395576002600060146101000a81548160ff0219169083600381111561038f5761038e610b4e565b5b02179055505b600260038111156103a9576103a8610b4e565b5b600060149054906101000a900460ff1660038111156103cb576103ca610b4e565b5b1480156103e757506007546005546103e39190610a68565b4210155b15610418576003600060146101000a81548160ff0219169083600381111561041257610411610b4e565b5b02179055505b600180600381111561042d5761042c610b4e565b5b600060149054906101000a900460ff16600381111561044f5761044e610b4e565b5b1461048f576040517f08c379a0000000000000000000000000000000000000000000000000000000008152600401610486906109fc565b60405180910390fd5b6008339080600181540180825580915050600190039060005260206000200160009091909190916101000a81548173ffffffffffffffffffffffffffffffffffffffff021916908373ffffffffffffffffffffffffffffffffffffffff16021790555082600960003373ffffffffffffffffffffffffffffffffffffffff1673ffffffffffffffffffffffffffffffffffffffff1681526020019081526020016000208190555081600a60003373ffffffffffffffffffffffffffffffffffffffff1673ffffffffffffffffffffffffffffffffffffffff16815260200190815260200160002081905550505050565b610587610780565b73ffffffffffffffffffffffffffffffffffffffff166105a5610607565b73ffffffffffffffffffffffffffffffffffffffff16146105fb576040517f08c379a00000000000000000000000000000000000000000000000000000000081526004016105f290610a1c565b60405180910390fd5b6106056000610788565b565b60008060009054906101000a900473ffffffffffffffffffffffffffffffffffffffff16905090565b60025481565b600060149054906101000a900460ff1681565b610651610780565b73ffffffffffffffffffffffffffffffffffffffff1661066f610607565b73ffffffffffffffffffffffffffffffffffffffff16146106c5576040517f08c379a00000000000000000000000000000000000000000000000000000000081526004016106bc90610a1c565b60405180910390fd5b600073ffffffffffffffffffffffffffffffffffffffff168173ffffffffffffffffffffffffffffffffffffffff161415610735576040517f08c379a000000000000000000000000000000000000000000000000000000000815260040161072c906109dc565b60405180910390fd5b61073e81610788565b50565b6008818154811061075157600080fd5b906000526020600020016000915054906101000a900473ffffffffffffffffffffffffffffffffffffffff1681565b600033905090565b60008060009054906101000a900473ffffffffffffffffffffffffffffffffffffffff169050816000806101000a81548173ffffffffffffffffffffffffffffffffffffffff021916908373ffffffffffffffffffffffffffffffffffffffff1602179055508173ffffffffffffffffffffffffffffffffffffffff168173ffffffffffffffffffffffffffffffffffffffff167f8be0079c531659141344cd1fd0a4f28419497f9722a3daafe3b4186f6b6457e060405160405180910390a35050565b60008135905061085b81610c5d565b92915050565b60008135905061087081610c74565b92915050565b60006020828403121561088c5761088b610b7d565b5b600061089a8482850161084c565b91505092915050565b6000602082840312156108b9576108b8610b7d565b5b60006108c784828501610861565b91505092915050565b600080604083850312156108e7576108e6610b7d565b5b60006108f585828601610861565b925050602061090685828601610861565b9150509250929050565b61091981610abe565b82525050565b61092881610b0d565b82525050565b600061093b602683610a57565b915061094682610b82565b604082019050919050565b600061095e602783610a57565b915061096982610bd1565b604082019050919050565b6000610981602083610a57565b915061098c82610c20565b602082019050919050565b6109a081610b03565b82525050565b60006020820190506109bb6000830184610910565b92915050565b60006020820190506109d6600083018461091f565b92915050565b600060208201905081810360008301526109f58161092e565b9050919050565b60006020820190508181036000830152610a1581610951565b9050919050565b60006020820190508181036000830152610a3581610974565b9050919050565b6000602082019050610a516000830184610997565b92915050565b600082825260208201905092915050565b6000610a7382610b03565b9150610a7e83610b03565b9250827fffffffffffffffffffffffffffffffffffffffffffffffffffffffffffffffff03821115610ab357610ab2610b1f565b5b828201905092915050565b6000610ac982610ae3565b9050919050565b6000819050610ade82610c49565b919050565b600073ffffffffffffffffffffffffffffffffffffffff82169050919050565b6000819050919050565b6000610b1882610ad0565b9050919050565b7f4e487b7100000000000000000000000000000000000000000000000000000000600052601160045260246000fd5b7f4e487b7100000000000000000000000000000000000000000000000000000000600052602160045260246000fd5b600080fd5b7f4f776e61626c653a206e6577206f776e657220697320746865207a65726f206160008201527f6464726573730000000000000000000000000000000000000000000000000000602082015250565b7f46756e6374696f6e2063616e6e6f742062652063616c6c65642061742074686960008201527f732074696d652e00000000000000000000000000000000000000000000000000602082015250565b7f4f776e61626c653a2063616c6c6572206973206e6f7420746865206f776e6572600082015250565b60048110610c5a57610c59610b4e565b5b50565b610c6681610abe565b8114610c7157600080fd5b50565b610c7d81610b03565b8114610c8857600080fd5b5056fea2646970667358221220fee9aa1f0339061432a5dec82d8648e6babcfe496131e2d2ab44b8b7b8e2fce064736f6c63430008070033",
  "immutableReferences": {},
  "source": "/// SPDX-License-Identifier: UNLICENSED\npragma solidity ^0.8.7;\n\nimport \"@openzeppelin/contracts/token/ERC20/IERC20.sol\";\nimport \"@openzeppelin/contracts/token/ERC20/utils/SafeERC20.sol\";\nimport \"@openzeppelin/contracts/utils/Address.sol\";\nimport \"@openzeppelin/contracts/access/Ownable.sol\";\nimport \"@openzeppelin/contracts/utils/math/SafeMath.sol\";\n\n\ncontract WheelSolo is Ownable {\n\n    using SafeMath for uint256;\n    using Address for address;\n\n    // States of the game.\n    enum States {\n        NOTSTARTED,     // Round hasn't started yet.\n        BETTING,        // Smart contract is open for placing bets.\n        IDLE,           // Smart contract is restricted to do any other acitivites than waiting.\n        COMPLETED       // Smart contract transfers the prizes & resets variables.\n    }\n\n    States public state; // Current state of the game.\n\n    IERC20 internal _LLTH; // Instance of $LLTH token.\n\n    uint256 public minMultiplier; // Minimum value of the wheel segment multiplier.\n    uint256 public maxMultiplier; // Maximum value of the wheel segment multiplier.\n    uint256 internal _winningMultiplier; // Random winning multiplier number.\n    uint256 internal _creationTime; // Time of starting a new round.\n    uint256 internal _bettingTime; // Duration of betting in seconds.\n    uint256 internal _idleTime; // Duration of spinning in seconds.\n\n    address[] public players; // Array of players in the current round.\n\n    mapping(address => uint256) bets; // Bets of players in the current round.\n    mapping(address => uint256) multipliers; // Multiplier of players in the current round.\n\n\n    //-------------------------------------------------------------------------\n    // CONSTRUCTOR\n    //-------------------------------------------------------------------------\n\n    constructor(uint256 minMultiplier_, uint256 maxMultiplier_, uint256 bettingTime_, uint256 idleTime_) {\n        minMultiplier = minMultiplier_;\n        maxMultiplier = maxMultiplier_;\n        _bettingTime = bettingTime_;\n        _idleTime = idleTime_;\n        state = States.NOTSTARTED;\n    }\n\n    //-------------------------------------------------------------------------\n    // STATE MODIFIERS\n    //-------------------------------------------------------------------------\n\n    modifier atState(States _state) {\n        require(\n            state == _state,\n            \"Function cannot be called at this time.\"\n        );\n        _;\n    }\n\n    modifier timedTransitions() {\n        if (state == States.BETTING &&\n                    block.timestamp >= _creationTime + _bettingTime)\n            state = States.IDLE;\n        if (state == States.IDLE &&\n                block.timestamp >= _creationTime + _idleTime)\n            state = States.COMPLETED;\n        _;\n    }\n\n\n    //-------------------------------------------------------------------------\n    // VIEW FUNCTIONS\n    //-------------------------------------------------------------------------\n\n    function getState() external view returns(States) {\n        return state;\n    }\n\n    //-------------------------------------------------------------------------\n    // SET FUNCTIONS\n    //-------------------------------------------------------------------------\n\n\n    //-------------------------------------------------------------------------\n    // INTERNAL FUNCTIONS \n    //-------------------------------------------------------------------------\n\n    function random(uint256 mod) view internal returns(uint256) {\n        return uint256(keccak256(abi.encodePacked(block.timestamp, block.difficulty))) % mod;\n    }\n\n    function getWinningMultiplier() internal {\n        _winningMultiplier = random(25);\n    }\n\n    // Transfers the prize for winners, resets mappings and array.\n    function closeRound() internal atState(States.COMPLETED) {\n        for (uint256 i = 0; i < players.length; i++) {\n            if (multipliers[players[i]] == _winningMultiplier) {\n                _LLTH.transfer(players[i], _winningMultiplier.mul(bets[players[i]]));\n            }\n            delete multipliers[players[i]];\n            delete bets[players[i]];\n        }\n        delete players;\n        state = States.NOTSTARTED;\n    }\n\n\n    //-------------------------------------------------------------------------\n    // EXTERNAL FUNCTIONS \n    //-------------------------------------------------------------------------\n\n    function startNewRound(uint256 startTime) external atState(States.NOTSTARTED) onlyOwner() {\n        require(block.timestamp >= startTime);\n        state = States.BETTING;\n    }\n\n    function placeBet(uint256 bet, uint256 multiplier) external timedTransitions() atState(States.BETTING) {\n        players.push(msg.sender);\n        bets[msg.sender] = bet;\n        multipliers[msg.sender] = multiplier;   \n    }\n\n    \n}",
  "sourcePath": "/home/levi/wheel_latest/client/contracts/WheelSolo.sol",
  "compiler": {
    "name": "solc",
    "version": "0.8.7+commit.e28d00a7.Emscripten.clang"
  },
  "schemaVersion": "3.4.1",
  "updatedAt": "2021-09-11T19:12:27.940Z",
  "networkType": "ethereum",
  "devdoc": {
    "kind": "dev",
    "methods": {
      "owner()": {
        "details": "Returns the address of the current owner."
      },
      "renounceOwnership()": {
        "details": "Leaves the contract without owner. It will not be possible to call `onlyOwner` functions anymore. Can only be called by the current owner. NOTE: Renouncing ownership will leave the contract without an owner, thereby removing any functionality that is only available to the owner."
      },
      "transferOwnership(address)": {
        "details": "Transfers ownership of the contract to a new account (`newOwner`). Can only be called by the current owner."
      }
    },
    "version": 1
  },
  "userdoc": {
    "kind": "user",
    "methods": {},
    "version": 1
  }
}